{
  "contractName": "Constants",
  "abi": [
    {
      "inputs": [],
      "name": "MY_ADDRESS",
      "outputs": [
        {
          "internalType": "address",
          "name": "",
          "type": "address"
        }
      ],
      "stateMutability": "view",
      "type": "function"
    },
    {
      "inputs": [],
      "name": "MY_UINT",
      "outputs": [
        {
          "internalType": "uint256",
          "name": "",
          "type": "uint256"
        }
      ],
      "stateMutability": "view",
      "type": "function"
    }
  ],
  "bytecode": "0x608060405234801561001057600080fd5b5061015a806100206000396000f3fe608060405234801561001057600080fd5b50600436106100365760003560e01c80631f6649e31461003b5780633a756cec14610059575b600080fd5b610043610077565b60405161005091906100ad565b60405180910390f35b61006161007c565b60405161006e9190610109565b60405180910390f35b607b81565b73777788889999aaaabbbbccccddddeeeeffffcccc81565b6000819050919050565b6100a781610094565b82525050565b60006020820190506100c2600083018461009e565b92915050565b600073ffffffffffffffffffffffffffffffffffffffff82169050919050565b60006100f3826100c8565b9050919050565b610103816100e8565b82525050565b600060208201905061011e60008301846100fa565b9291505056fea2646970667358221220df62ca43cb57f1c8c242c2367f484e06f2d152f730340b256495fc0ffb8c6a2f64736f6c634300080d0033",
  "immutableReferences": {},
  "source": "// SPDX-License-Identifier: MIT\r\npragma solidity ^0.8.10;\r\n\r\ncontract Constants {\r\n    // coding convention to uppercase constant variables\r\n    address public constant MY_ADDRESS = 0x777788889999AaAAbBbbCcccddDdeeeEfFFfCcCc;\r\n    uint public constant MY_UINT = 123;\r\n}\r\n",
  "sourcePath": "C:\\Users\\user\\OneDrive\\Desktop\\Sol\\contracts\\Constants.sol",
  "compiler": {
    "name": "solc",
    "version": "0.8.13+commit.abaa5c0e.Emscripten.clang"
  },
  "schemaVersion": "3.4.6",
  "updatedAt": "2022-04-25T04:31:57.827Z",
  "devdoc": {
    "kind": "dev",
    "methods": {},
    "version": 1
  },
  "userdoc": {
    "kind": "user",
    "methods": {},
    "version": 1
  }
}