{
  "contractName": "Gas",
  "abi": [
    {
      "inputs": [],
      "name": "forever",
      "outputs": [],
      "stateMutability": "pure",
      "type": "function"
    }
  ],
  "bytecode": "0x6080604052348015600f57600080fd5b50607380601d6000396000f3fe6080604052348015600f57600080fd5b506004361060285760003560e01c80639ff9a60314602d575b600080fd5b60336035565b005b5b600160365756fea2646970667358221220d00cb9753b87d3b921bac05c3cb9da34431bcceeb45cf5c966daef366d9ecd1464736f6c634300080d0033",
  "immutableReferences": {},
  "source": "// SPDX-License-Identifier: MIT\r\npragma solidity ^0.8.10;\r\n\r\ncontract Gas {\r\n    // uint public i = 0;\r\n\r\n    function forever() public pure {\r\n        while (true) {\r\n            uint interger = 0;\r\n        }\r\n    }\r\n}\r\n",
  "sourcePath": "C:\\Users\\user\\OneDrive\\Desktop\\Sol\\contracts\\Gas.sol",
  "compiler": {
    "name": "solc",
    "version": "0.8.13+commit.abaa5c0e.Emscripten.clang"
  },
  "schemaVersion": "3.4.6",
  "updatedAt": "2022-04-25T04:31:57.836Z",
  "devdoc": {
    "kind": "dev",
    "methods": {},
    "version": 1
  },
  "userdoc": {
    "kind": "user",
    "methods": {},
    "version": 1
  }
}