{
  "contractName": "Primitives",
  "abi": [
    {
      "inputs": [],
      "name": "addr",
      "outputs": [
        {
          "internalType": "address",
          "name": "",
          "type": "address"
        }
      ],
      "stateMutability": "view",
      "type": "function"
    },
    {
      "inputs": [],
      "name": "boo",
      "outputs": [
        {
          "internalType": "bool",
          "name": "",
          "type": "bool"
        }
      ],
      "stateMutability": "view",
      "type": "function"
    },
    {
      "inputs": [],
      "name": "defaultAddr",
      "outputs": [
        {
          "internalType": "address",
          "name": "",
          "type": "address"
        }
      ],
      "stateMutability": "view",
      "type": "function"
    },
    {
      "inputs": [],
      "name": "defaultBoo",
      "outputs": [
        {
          "internalType": "bool",
          "name": "",
          "type": "bool"
        }
      ],
      "stateMutability": "view",
      "type": "function"
    },
    {
      "inputs": [],
      "name": "defaultInt",
      "outputs": [
        {
          "internalType": "int256",
          "name": "",
          "type": "int256"
        }
      ],
      "stateMutability": "view",
      "type": "function"
    },
    {
      "inputs": [],
      "name": "defaultUint",
      "outputs": [
        {
          "internalType": "uint256",
          "name": "",
          "type": "uint256"
        }
      ],
      "stateMutability": "view",
      "type": "function"
    },
    {
      "inputs": [],
      "name": "i",
      "outputs": [
        {
          "internalType": "int256",
          "name": "",
          "type": "int256"
        }
      ],
      "stateMutability": "view",
      "type": "function"
    },
    {
      "inputs": [],
      "name": "i256",
      "outputs": [
        {
          "internalType": "int256",
          "name": "",
          "type": "int256"
        }
      ],
      "stateMutability": "view",
      "type": "function"
    },
    {
      "inputs": [],
      "name": "i8",
      "outputs": [
        {
          "internalType": "int8",
          "name": "",
          "type": "int8"
        }
      ],
      "stateMutability": "view",
      "type": "function"
    },
    {
      "inputs": [],
      "name": "maxInt",
      "outputs": [
        {
          "internalType": "int256",
          "name": "",
          "type": "int256"
        }
      ],
      "stateMutability": "view",
      "type": "function"
    },
    {
      "inputs": [],
      "name": "minInt",
      "outputs": [
        {
          "internalType": "int256",
          "name": "",
          "type": "int256"
        }
      ],
      "stateMutability": "view",
      "type": "function"
    },
    {
      "inputs": [],
      "name": "u",
      "outputs": [
        {
          "internalType": "uint256",
          "name": "",
          "type": "uint256"
        }
      ],
      "stateMutability": "view",
      "type": "function"
    },
    {
      "inputs": [],
      "name": "u256",
      "outputs": [
        {
          "internalType": "uint256",
          "name": "",
          "type": "uint256"
        }
      ],
      "stateMutability": "view",
      "type": "function"
    },
    {
      "inputs": [],
      "name": "u8",
      "outputs": [
        {
          "internalType": "uint8",
          "name": "",
          "type": "uint8"
        }
      ],
      "stateMutability": "view",
      "type": "function"
    }
  ],
  "bytecode": "0x608060405260016000806101000a81548160ff0219169083151502179055506001600060016101000a81548160ff021916908360ff1602179055506101c8600155607b6002557fffffffffffffffffffffffffffffffffffffffffffffffffffffffffffffffff600360006101000a81548160ff021916908360000b60ff1602179055506101c86004557fffffffffffffffffffffffffffffffffffffffffffffffffffffffffffffff856005557f80000000000000000000000000000000000000000000000000000000000000006006557f7fffffffffffffffffffffffffffffffffffffffffffffffffffffffffffffff60075573ca35b7d915458ef540ade6068dfe2f44e8fa733c600860006101000a81548173ffffffffffffffffffffffffffffffffffffffff021916908373ffffffffffffffffffffffffffffffffffffffff16021790555060b560f81b600860146101000a81548160ff021916908360f81c0217905550605660f81b600860156101000a81548160ff021916908360f81c021790555034801561019457600080fd5b506104f7806101a46000396000f3fe608060405234801561001057600080fd5b50600436106100ea5760003560e01c80637a4c25711161008c578063ab3a58a311610066578063ab3a58a31461021b578063c6a898c514610239578063e5aa3d5814610257578063f2427d3714610275576100ea565b80637a4c2571146101c15780637e4e14cc146101df578063921cda74146101fd576100ea565b80634b3df200116100c85780634b3df200146101495780634c27fd62146101675780635abe622b14610185578063767800de146101a3576100ea565b8063074eef3f146100ef5780631570c2cb1461010d578063459b1acf1461012b575b600080fd5b6100f7610293565b6040516101049190610374565b60405180910390f35b6101156102a6565b60405161012291906103a8565b60405180910390f35b6101336102ac565b60405161014091906103a8565b60405180910390f35b6101516102b2565b60405161015e9190610374565b60405180910390f35b61016f6102c3565b60405161017c91906103dc565b60405180910390f35b61018d6102c9565b60405161019a91906103dc565b60405180910390f35b6101ab6102cf565b6040516101b89190610438565b60405180910390f35b6101c96102f5565b6040516101d691906103dc565b60405180910390f35b6101e76102fb565b6040516101f491906103dc565b60405180910390f35b610205610301565b604051610212919061046f565b60405180910390f35b610223610314565b60405161023091906104a6565b60405180910390f35b610241610327565b60405161024e91906103a8565b60405180910390f35b61025f61032d565b60405161026c91906103dc565b60405180910390f35b61027d610333565b60405161028a9190610438565b60405180910390f35b600860169054906101000a900460ff1681565b60095481565b60015481565b60008054906101000a900460ff1681565b60045481565b600a5481565b600860009054906101000a900473ffffffffffffffffffffffffffffffffffffffff1681565b60075481565b60065481565b600360009054906101000a900460000b81565b600060019054906101000a900460ff1681565b60025481565b60055481565b600b60009054906101000a900473ffffffffffffffffffffffffffffffffffffffff1681565b60008115159050919050565b61036e81610359565b82525050565b60006020820190506103896000830184610365565b92915050565b6000819050919050565b6103a28161038f565b82525050565b60006020820190506103bd6000830184610399565b92915050565b6000819050919050565b6103d6816103c3565b82525050565b60006020820190506103f160008301846103cd565b92915050565b600073ffffffffffffffffffffffffffffffffffffffff82169050919050565b6000610422826103f7565b9050919050565b61043281610417565b82525050565b600060208201905061044d6000830184610429565b92915050565b60008160000b9050919050565b61046981610453565b82525050565b60006020820190506104846000830184610460565b92915050565b600060ff82169050919050565b6104a08161048a565b82525050565b60006020820190506104bb6000830184610497565b9291505056fea2646970667358221220a9069d74a9c14186261eff91938b925db4b69961d694a8ad145ac9eeabe4055364736f6c634300080d0033",
  "immutableReferences": {},
  "source": "// SPDX-License-Identifier: MIT\r\npragma solidity ^0.8.10;\r\n\r\ncontract Primitives {\r\n    bool public boo = true;\r\n\r\n    /*\r\n    uint stands for unsigned integer, meaning non negative integers\r\n    different sizes are available\r\n        uint8   ranges from 0 to 2 ** 8 - 1\r\n        uint16  ranges from 0 to 2 ** 16 - 1\r\n        ...\r\n        uint256 ranges from 0 to 2 ** 256 - 1\r\n    */\r\n    uint8 public u8 = 1;\r\n    uint public u256 = 456;\r\n    uint public u = 123; // uint is an alias for uint256\r\n\r\n    /*\r\n    Negative numbers are allowed for int types.\r\n    Like uint, different ranges are available from int8 to int256\r\n    \r\n    int256 ranges from -2 ** 255 to 2 ** 255 - 1\r\n    int128 ranges from -2 ** 127 to 2 ** 127 - 1\r\n    */\r\n    int8 public i8 = -1;\r\n    int public i256 = 456;\r\n    int public i = -123; // int is same as int256\r\n\r\n    // minimum and maximum of int\r\n    int public minInt = type(int).min;\r\n    int public maxInt = type(int).max;\r\n\r\n    address public addr = 0xCA35b7d915458EF540aDe6068dFe2F44E8fa733c;\r\n\r\n    /*\r\n    In Solidity, the data type byte represent a sequence of bytes. \r\n    Solidity presents two type of bytes types :\r\n\r\n     - fixed-sized byte arrays\r\n     - dynamically-sized byte arrays.\r\n     \r\n     The term bytes in Solidity represents a dynamic array of bytes. \r\n     Its a shorthand for byte[] .\r\n    */\r\n    bytes1 a = 0xb5; //  [10110101]\r\n    bytes1 b = 0x56; //  [01010110]\r\n\r\n    // Default values\r\n    // Unassigned variables have a default value\r\n    bool public defaultBoo; // false\r\n    uint public defaultUint; // 0\r\n    int public defaultInt; // 0\r\n    address public defaultAddr; // 0x0000000000000000000000000000000000000000\r\n}\r\n",
  "sourcePath": "C:\\Users\\user\\OneDrive\\Desktop\\Sol\\contracts\\Primitives.sol",
  "compiler": {
    "name": "solc",
    "version": "0.8.13+commit.abaa5c0e.Emscripten.clang"
  },
  "schemaVersion": "3.4.6",
  "updatedAt": "2022-04-25T04:31:57.859Z",
  "devdoc": {
    "kind": "dev",
    "methods": {},
    "version": 1
  },
  "userdoc": {
    "kind": "user",
    "methods": {},
    "version": 1
  }
}