{
  "contractName": "SendEther",
  "abi": [
    {
      "inputs": [
        {
          "internalType": "address payable",
          "name": "_to",
          "type": "address"
        }
      ],
      "name": "sendViaTransfer",
      "outputs": [],
      "stateMutability": "payable",
      "type": "function",
      "payable": true
    },
    {
      "inputs": [
        {
          "internalType": "address payable",
          "name": "_to",
          "type": "address"
        }
      ],
      "name": "sendViaSend",
      "outputs": [],
      "stateMutability": "payable",
      "type": "function",
      "payable": true
    },
    {
      "inputs": [
        {
          "internalType": "address payable",
          "name": "_to",
          "type": "address"
        }
      ],
      "name": "sendViaCall",
      "outputs": [],
      "stateMutability": "payable",
      "type": "function",
      "payable": true
    }
  ],
  "bytecode": "0x608060405234801561001057600080fd5b50610390806100206000396000f3fe6080604052600436106100345760003560e01c8063636e082b1461003957806374be480614610055578063830c29ae14610071575b600080fd5b610053600480360381019061004e919061026a565b61008d565b005b61006f600480360381019061006a919061026a565b6100d7565b005b61008b6004803603810190610086919061026a565b610154565b005b8073ffffffffffffffffffffffffffffffffffffffff166108fc349081150290604051600060405180830381858888f193505050501580156100d3573d6000803e3d6000fd5b5050565b60008173ffffffffffffffffffffffffffffffffffffffff166108fc349081150290604051600060405180830381858888f19350505050905080610150576040517f08c379a0000000000000000000000000000000000000000000000000000000008152600401610147906102f4565b60405180910390fd5b5050565b6000808273ffffffffffffffffffffffffffffffffffffffff163460405161017b90610345565b60006040518083038185875af1925050503d80600081146101b8576040519150601f19603f3d011682016040523d82523d6000602084013e6101bd565b606091505b509150915081610202576040517f08c379a00000000000000000000000000000000000000000000000000000000081526004016101f9906102f4565b60405180910390fd5b505050565b600080fd5b600073ffffffffffffffffffffffffffffffffffffffff82169050919050565b60006102378261020c565b9050919050565b6102478161022c565b811461025257600080fd5b50565b6000813590506102648161023e565b92915050565b6000602082840312156102805761027f610207565b5b600061028e84828501610255565b91505092915050565b600082825260208201905092915050565b7f4661696c656420746f2073656e64204574686572000000000000000000000000600082015250565b60006102de601483610297565b91506102e9826102a8565b602082019050919050565b6000602082019050818103600083015261030d816102d1565b9050919050565b600081905092915050565b50565b600061032f600083610314565b915061033a8261031f565b600082019050919050565b600061035082610322565b915081905091905056fea26469706673582212204c26f68f82ae312b3fdf4825b62615a465fc2c23706a1f9ad4b9c4d1120c6cc464736f6c634300080d0033",
  "immutableReferences": {},
  "source": "// SPDX-License-Identifier: MIT\r\npragma solidity ^0.8.10;\r\n\r\ncontract ReceiveEther {\r\n    event Received(address, uint);\r\n    receive() external payable {\r\n        emit Received(msg.sender, msg.value);\r\n    }\r\n\r\n    fallback() external payable {\r\n    }\r\n\r\n    function getBalance() public view returns (uint) {\r\n        return address(this).balance;\r\n    }\r\n}\r\n\r\ncontract SendEther {\r\n    function sendViaTransfer(address payable _to) public payable {\r\n        _to.transfer(msg.value);\r\n    }\r\n\r\n    function sendViaSend(address payable _to) public payable {\r\n        bool sent = _to.send(msg.value);\r\n        require(sent, \"Failed to send Ether\");\r\n    }\r\n\r\n    function sendViaCall(address payable _to) public payable {\r\n        (bool sent, bytes memory data) = _to.call{value: msg.value}(\"\");\r\n        require(sent, \"Failed to send Ether\");\r\n    }\r\n}\r\n",
  "sourcePath": "C:\\Users\\user\\OneDrive\\Desktop\\Sol\\contracts\\Rev.sol",
  "compiler": {
    "name": "solc",
    "version": "0.8.13+commit.abaa5c0e.Emscripten.clang"
  },
  "schemaVersion": "3.4.6",
  "updatedAt": "2022-04-25T04:32:11.492Z",
  "networkType": "ethereum",
  "devdoc": {
    "kind": "dev",
    "methods": {},
    "version": 1
  },
  "userdoc": {
    "kind": "user",
    "methods": {},
    "version": 1
  }
}